:020000040800F2
:10000000A8050020D50000080D1500085D120008A5
:1000100000000000000000000000000000000000E0
:100020000000000000000000000000007D15000836
:10003000000000000000000079150008D916000833
:100040001D0100081D0100081D0100081D01000818
:100050001D010008DD10000801110008251100082D
:100060001D01000831100008451000086D1000083F
:100070001D010008991700081D010008AD170008B0
:10008000C1170008D51700081D010008491700080E
:100090001D010008651700087D1700081D010008F4
:1000A0001D0100081D0100081D010008E9170008D6
:1000B0001D18000800000000000000000000000003
:1000C0000348854600F0B4FC00480047612B000857
:1000D000A8050020124880F3088812480168090E1C
:1000E000114A914205D11148114901601148124944
:1000F0000160124812490160124813490160134817
:10010000114901600D480C490160114880471148B0
:100110000047FEE7FEE7FEE7FEE7FEE7FEE700003A
:10012000A8050020040000001F0000001810024075
:100130000100000000000140000000001C1002400F
:100140000000000418680040120000001C68004015
:10015000DD160008C100000830B50B46014600203E
:100160002022012409E00D46D5409D4205D31D46BD
:100170009540491B2546954040191546521E002DB5
:10018000F1DC30BD70B500242546002801DA0124D9
:100190004042002901DA01254942FFF7DDFFAC4268
:1001A00000D04042002C00D0494270BD03460B43B2
:1001B0009B0703D009E008C9121F08C0042AFAD21D
:1001C00003E00B780370401C491C521EF9D27047A3
:1001D000F8B502464A40D40F42004B0052085B0873
:1001E0009A4202D20246084611464A0023D0C30D65
:1001F0004A00DDB2120EAD1A202D35DA4902012671
:10020000490AF6058A19002C00D0524220214F1BC2
:100210001146B9402A411018C20D9A4221D0002C33
:1002200017D0012D08DCDA05801AD20F8019D20709
:10023000DBB200F065FBF8BDDA05801A012340004F
:100240001B06C01880185A428018CA0F1043490074
:1002500007E04908C2071143DA05801A80194008EF
:10026000801800F045FBF8BD61000122511A001B07
:10027000F7E70122D2075140AAE70122D2075040F6
:10028000A6E7024670B54A40D30FDB0740002DD0E9
:100290004A002AD0010E140E000212020919400A67
:1002A000520A8418E50104465443000A120A2E0437
:1002B0005043A4194219200CC543AA18120C012559
:1002C000AD03521C521912047F39240400D0521C71
:1002D000104301D44000491EC2B20C06C0092018C8
:1002E000401C4008802A02D003E0002070BD400876
:1002F0004000002900DA0020184370BD70B50246A6
:100300004A40D50F40004A00ED0740085208002837
:1003100014D0002A12D0C40DD30D41020120C00513
:100320005202490A520AE41A091812187D349142FD
:1003300001D3641C00E04900002C01DA002070BDEC
:100340000023914201D3891A034340084900002841
:10035000F7D100290AD0914202D10121C90705E055
:10036000914201D2012101E00121C943E005C018F9
:10037000401900F0BDFA70BDF0B507460846584078
:1003800087B0C00F049048000E4659004008490845
:10039000BC1A884105D2384631461E4617460B46E0
:1003A00002465800400810434CD0300D03904005E1
:1003B0005900400D490D0590401A0290402872DA0C
:1003C00018030121000B09050843019004980092CD
:1003D000002805D0019952420020884100920190E6
:1003E000029840210A1A0199009800F04DFA05463A
:1003F0000C466B4607CB00F068FAC0197141039AAE
:100400000E0D0023D71756401A467A40164344D0A3
:10041000049A002A2DD0029A012A039A15DC1205AB
:10042000C01A914101263605001C7141D20F059E6C
:10043000D2070093019202962A46234600F0A6FABC
:1004400007B0F0BD38463146FAE71605224A0F4696
:10045000B218C01AB74101210905001C4F4100180C
:100460007F41114618187941E20F10436D1964411C
:1004700013E0E2076D0815436408C2071443039AAA
:1004800001261205C01A91413605001C7141CE07A4
:10049000400830434908C01851412A46234600F01D
:1004A00068FACDE7FFE7049801224000C117121A4D
:1004B00000238B4104983146C417381AA141EEE756
:1004C00030B40124E407634030BC55E730B4012464
:1004D000E407614030BC4FE70000E0FFF0B51FB417
:1004E00088B00B990998002448400999C00F490029
:1004F00049080991C0070B990090490049080B91E0
:1005000009990898A64608431CD00B990A980843F5
:1005100018D0099801244000420D4800410D099867
:1005200024050003000B204309900B980003000BE7
:1005300020430B9050181C4940180022019014468B
:10054000104605E0002001460DB0F0BD032801DA99
:10055000034600E003239C46C11A0AAE0AE05F008E
:1005600008ADED5B4F00F75B7D430027AA187C4187
:10057000491C5B1E6145F2DD410004AB5A52210467
:10058000120C0A43240C401C0828DFDB019802905F
:100590000099704601910090059B049A079906986E
:1005A00000F0F4F9D0E700000DFCFFFFF0B50C46B9
:1005B0005C4085B0E40FE40703944C000026640817
:1005C00059009446490802460296224321D06246C9
:1005D0000A431ED06200570D4A000E032303550D37
:1005E000012402462C492405781B1B0B360B4018AE
:1005F00023432643614600901C46501AB44103D35E
:100600000098401C009002E0921800985B4100287E
:1006100003DA0020014605B0F0BD002001210905E4
:100620000746864611E064461D46141BB54106D3B5
:100630006546521BB341744607430C43A646CD079B
:1006400040084908284392185B4105460D43EAD10A
:100650001046184313D06046194650407140084375
:1006600006D06046101AB34106D20122002306E0EC
:1006700000220123DB0702E00122D243531000983D
:1006800074460105381C6141029C039D00196941B3
:1006900000F06FF9BFE70000FD030000C217C10FB3
:1006A000504010B54018CA079623002100F028F9E1
:1006B00010BD10B500229623114600F021F910BD9F
:1006C0000EB5C217C10F5040CA0740180021054B94
:1006D0000293019200910A460B4600F057F903B0CD
:1006E00000BD0000330400000EB505490291002151
:1006F00000910A460B46019100F048F903B000BD95
:1007000033040000410040020122400AD205090ED4
:1007100080187F2901DA00207047962903DC962291
:10072000511AC840704796398840704770B5CD0F50
:100730004A0009030123090B1B0519430B4BED0765
:100740000024520D9A4201DA002070BD074B343369
:100750009A4203DC9A1A00F0A7F802E00449511803
:1007600088402C43F1D0404270BD0000FF030000E0
:10077000CDFBFFFF4A0009030123090B1B051943A9
:10078000094B10B5520D9A4201DA002010BD064BFC
:1007900034339A4203DC9A1A00F086F810BD0349FC
:1007A0005118884010BD0000FF030000CDFBFFFF83
:1007B000C20FD207400040080BD0C10D0723DB0158
:1007C000C91840020905400A1143C20840071143F5
:1007D000704700200146704710B5002904DB012452
:1007E000E40740428C412146002B04DB1C460123D8
:1007F000DB075242A3418B4200D1824210BD000070
:1008000010B5002904DB0124E40740428C41214655
:10081000002B04DB1C460123DB075242A341994213
:1008200000D1904210BD0000CB0FDB07490010B58E
:10083000490802460A4307D00A0D07240903E401C8
:10084000090B121B002A01DC002010BDC900440F57
:100850000C43C100E018D205801800F049F810BD23
:100860000122D207002800DB101A002900DB511AF0
:10087000814270470122D207002800DB101A0029AC
:1008800000DB511A8842704710B5202A04DB01466C
:10089000203A9140002010BD914020239C1A03462D
:1008A000E3401943904010BD10B5202A04DB0846F0
:1008B000203AD040002110BD0B46D340D040202428
:1008C000A21A91400843194610BD10B5202A06DB34
:1008D000CB170846203A1041C1170B4306E00B46E0
:1008E0001341D0402024A21A91400843194610BD5C
:1008F000002904DA401C490001D14008400070473B
:1009000070B40024050C05D11024000402D1002984
:1009100021D01124050E01D100020834050F01D1A8
:100920000001241D850F01D18000A41C002801DBDB
:100930004000641C002908D020252E1B0D46F540E0
:10094000A14000D001212943084301061B1B000AD6
:10095000DB1D02D5002070BC7047DB05181880181D
:100960000029F8DA401C4900F5D170BC400840006D
:10097000704710B5002B08DA0024401C6141921822
:100980005B411A4301D14008400010BDF0B51FB4CF
:1009900082B005460C0003D0084600F06DFF02E06F
:1009A00000F06AFF20300246009021462846FFF7FB
:1009B0006BFF049B059A04460F46184311430843F6
:1009C00014D0184610431BD0009840210A1A18462C
:1009D0000599FFF769FF05460E46009A05990498A8
:1009E000FFF752FF084305D0012004E020463946B6
:1009F00007B0F0BD0020C11705430E432C43374319
:100A000000990E986305401A7905E40A00220C4308
:100A1000FD0A0A3002D500200146E9E70105101958
:100A200069410C9C0D9D00196941FFF7A2FFDFE7AA
:100A3000064C0125064E05E0E36807CC2B430C3C31
:100A400098471034B442F7D3FFF73EFB105B000821
:100A5000305B000870B58C180578401C6B075B0F85
:100A600001D10378401C2A1106D10278401C03E012
:100A700006780E70401C491C5B1EF9D12B0705D46B
:100A80000023521E0DD40B70491CFAE70378401C5A
:100A9000CB1A921C03E01D780D70491C5B1C521E82
:100AA000F9D5A142D8D3002070BD000010B50322B3
:100AB0002249002000F08AFF0446FFF715FE204A75
:100AC00003C203221F49002000F080FF0446FFF705
:100AD0000BFE1D4A03C203221C49002000F076FFD2
:100AE0000446FFF701FE1A4A03C2032219490020F7
:100AF00000F06CFF0446FFF7F7FD174A03C203221C
:100B00001649002000F062FF0446FFF7EDFD144A8D
:100B100003C203220021084600F058FF0446FFF7F5
:100B2000E3FD104A03C203220F49002000F04EFFEC
:100B30000446FFF7D9FD0D4A03C210BD06060000AA
:100B4000000000201A0B000008000020070700002A
:100B5000100000200505000018000020020200001F
:100B600020000020280000200303000030000020A7
:100B700010B5374A3749384802F03AFE0023374A61
:100B80003749022002F046FA0023344A3549022050
:100B900002F040FA002332223349132002F03AFADD
:100BA00001F052FD314801F036FD00223049104677
:100BB00000F0BAFE00222F49104600F0B5FE0022D8
:100BC0002D49104600F0B0FE00222C49104600F0DE
:100BD000ABFE00222A49104600F0A6FE0022114674
:100BE000104600F0A1FE00222649104600F09CFEAF
:100BF00002F04BFB234B9B1D5A1CE12149020120B3
:100C000002F0F6FEFF20F53002F006FD12488E38A5
:100C10001D490880084602881349132002F0A6F9EE
:100C2000FF20F53002F0F8FC0222FF212D310A48A6
:100C3000543002F06BFE012232210748653002F089
:100C400065FE0022C8210448763002F05FFE10BD28
:100C50000123000008120000B0100000983A0000C4
:100C60000B1400000C24000027210000FFFF0000EF
:100C7000060600001A0B000007070000050500002B
:100C8000020200000303000040000020FFB583B013
:100C90000C46029400200190002726E000261CE06C
:100CA000721C039951430846791CFFF755FA054613
:100CB000A54201D9281B00E0601B05460298A84206
:100CC00004D90295059806700698077002980028C6
:100CD00002D10120019002E0761C402EE0D300BF3B
:100CE0000198002800D002E07F1C042FD6D300BF5B
:100CF000029807B0F0BD0000F0B591B034222E4943
:100D000004A8FFF753FA2D482D490CC803C9FFF773
:100D100033FB04460D46294829490CC803C9FFF78F
:100D2000CFFB064622462B46FFF740FC0191009080
:100D3000FFF77AFD0146029004A802F08BF80390B9
:100D4000FFF736FD1F4A03C200221F4B1D4903C98E
:100D5000FFF756FD05D800211B481A4A1160506064
:100D600012E00022194B174903C9FFF735FD05D8DA
:100D700000211648134A1160506005E011480168CF
:100D80004068104A116050600022114B0D4903C9A0
:100D9000FFF7A4FB064600220E4BFFF797FB044625
:100DA000FFF7E8FC0C490880084602880B4913202D
:100DB00002F0DCF811B0F0BDB83E000830000020B1
:100DC00000000020700000200000F03F0000F0BF95
:100DD000001088400022B040400000202721000081
:100DE000F0B595B03422394908A8FFF7DFF9384843
:100DF00038490CC803C9FFF763FB04460022364B91
:100E0000FFF7D4FB03910290344835490CC803C95D
:100E1000FFF7B2FA04460D46304831490CC803C901
:100E2000FFF74EFB064622462B46FFF7BFFB01911C
:100E30000090039B029AFFF79FFA05910490FFF739
:100E4000F3FC0146069008A802F004F80790FFF7AB
:100E5000AFFC244A03C20022234B224903C9FFF7F7
:100E6000CFFC05D8002120481E4A1160506012E0D6
:100E700000221E4B1B4903C9FFF7AEFC05D8002119
:100E80001A48184A1160506005E016480168406829
:100E9000144A116050600022154B124903C9FFF734
:100EA0001DFB06460022134BFFF710FB0446FFF71D
:100EB00061FC1149088000F0D3FA0F4802880F49FD
:100EC000132002F053F815B0F0BD0000843E000876
:100ED0002800002008000020001EB4403000002040
:100EE00000000020700000200000F03F0000F0BF74
:100EF000001088400022B040400000202721000060
:100F0000F0B587B000F00BFEFFF76AFF3A483B49A7
:100F10000CC803C9FFF7D4FA04460022384BFFF788
:100F200045FB03910290374837490CC803C9FFF7C6
:100F300023FA04460D46334833490CC803C9FFF76A
:100F4000BFFA064622462B46FFF730FB0191009080
:100F5000039B029AFFF710FA00222C4B0591049094
:100F6000FFF7BCFA2A4A03C22A4829490CC803C918
:100F7000FFF7A6FA284A03C2254801684068254AB7
:100F80001160506025480068002815D10022244BCC
:100F90001F4903C9FFF720FC06D90022214B1C4939
:100FA00003C9FFF72DFC03D801201C49086003E0AA
:100FB0001A4800681949086018480068012819D1C2
:100FC0000022174B124903C9FFF71AFC12D800225E
:100FD000144B0F4903C9FFF7FFFB0BD80020124940
:100FE000086001201149086000200C490860084A87
:100FF0001060506007B0F0BD2800002008000020FD
:101000000070A740300000200000002000408F400A
:10101000880000209000002098000020A000002000
:1010200000C077C000C077407C0000208400002012
:1010300010B5022000F046F8012802D1022000F08D
:101040003BF810BD10B5202000F03CF8012802D17B
:10105000202000F031F80120400200F033F8012890
:1010600002D1400200F028F810BD000010B50120A8
:10107000400300F027F8012811D1400300F01CF8CC
:101080000C480078022802D0032806D102E001F0C3
:10109000C3FE03E001F0F8FD00E000BF00BF012047
:1010A000400400F00FF8012802D1400400F004F8D9
:1010B00010BD0000A80000200149486070470000F2
:1010C000000002400146044800680840002801D0A2
:1010D000012070470020FCE70000024010B501200D
:1010E00000F0AAF8002802D0012000F09FF80220AA
:1010F00000F0A2F8002802D0022000F097F810BDFE
:1011000010B5042000F098F8002802D0042000F068
:101110008DF8082000F090F8002802D0082000F098
:1011200085F810BD10B5102000F086F8002802D018
:10113000102000F07BF8202000F07EF8002802D07C
:10114000202000F073F8402000F076F8002802D04C
:10115000402000F06BF8802000F06EF8002811D0DD
:1011600031480078022802D0032806D102E001F0BD
:1011700063FE03E001F0C2FD00E000BF00BF80207D
:1011800000F054F8FF20013000F056F8002803D09A
:10119000FF20013000F04AF80120400200F04CF836
:1011A000002803D00120400200F040F80120800216
:1011B00000F042F8002803D00120800200F036F849
:1011C0000120C00200F038F8002803D00120C0023E
:1011D00000F02CF80120000300F02EF8002803D0C6
:1011E0000120000300F022F80120400300F024F861
:1011F000002803D00120400300F018F801208003EC
:1012000000F01AF8002803D00120800300F00EF847
:101210000120C00300F010F8002803D00120C00313
:1012200000F004F810BD0000A8000020014948614A
:10123000704700000004014001460748406908402B
:10124000002806D0044800680840002801D001208A
:1012500070470020FCE700000004014000BFFEE7EB
:1012600010B568480068401C664908600846006878
:1012700001287CD1644903C9FFF758FA04460A23C0
:1012800022460121084601F0ADFB604903C9FFF782
:101290004DFA04460A2322460221012001F0A2FB56
:1012A0005B4903C9FFF742FA04460A232246032199
:1012B000012001F097FB574903C9FFF737FA0446AD
:1012C0000A2322460421012001F08CFB524903C964
:1012D000FFF72CFA04460A2322460521012001F0DB
:1012E00081FB4E4903C9FFF721FA04460A2322462F
:1012F0000621012001F076FB494903C9FFF716FAE0
:1013000004460A2322460721012001F06BFB0A2331
:10131000444800210268084601F064FB0A23424861
:1013200001210268322001F05DFB0A233F480221BF
:101330000268322001F056FB0A233D48032102686F
:10134000322001F04FFB0A233A4802880421322060
:1013500001F048FB0A23384805210268322001F0D9
:1013600041FB0A23354806210268322000E048E0AC
:1013700001F038FB0A23324807210268322001F0CD
:1013800031FB0A232F4805210268642001F02AFB63
:101390000A232D4806210268642001F023FB0A235A
:1013A0002A4807210268642001F01CFB284903C970
:1013B000FFF7BCF904460A2322460121642001F00C
:1013C00011FB244903C9FFF7B1F904460A23224659
:1013D0000221642001F006FB1F4903C9FFF7A6F9AB
:1013E00004460A2322460321642001F0FBFA0A2363
:1013F0001A4804210268642001F0F4FA002001492F
:10140000086010BD38000020000000200800002007
:1014100010000020180000202000002028000020DC
:10142000300000203C000020480000204400002044
:101430004C000020420000205400002058000020F2
:101440006800002078000020800000208400002038
:10145000880000209000002098000020A0000020BC
:1014600010B500221F4B204903C9FFF7B5F938D248
:1014700000221C4B1D4903C9FFF7AEF931D20022EF
:10148000184B1B4903C9FFF7A7F92AD20022154BB5
:10149000184903C9FFF7A0F923D20022114B1649BE
:1014A00003C9FFF799F91CD200220E4B134903C957
:1014B000FFF792F915D200220A4B114903C9FFF731
:1014C0008BF90ED20E4808490CC803C9FFF798F9EA
:1014D00003D20C480C49088003E04B2080010A49E4
:1014E000088010BD00007E400000002008000020A1
:1014F00010000020180000202000002028000020FC
:1015000030000020840D00004000002000BFFEE7F6
:101510008178002925D01749032212028918027800
:1015200092109200895802789207D30EFF229A40B7
:10153000914342789207120E03789B07DB0E9A4084
:1015400011430C4A03231B02D21803789B109B0003
:10155000D1500178CA06D20E01219140054A11608E
:1015600007E00178CA06D20E01219140014A80327B
:101570001160704700E100E000BFFEE700BFFEE73A
:1015800010B500F001F810BD1FB54B4800680121EF
:101590000843494908600020039003E000BF039816
:1015A000401C0390454903988842F7D300BF424846
:1015B0000068022108400028F9D0414841490860EC
:1015C00041480068102108433F4908600846006808
:1015D000C008C00008603B490968481E3B49FEF747
:1015E000BBFD0290384800680299084336490860FC
:1015F00031484068304948600846406848600846BD
:10160000406848606B4601AA2E4801683048FFF7E1
:101610003DFB294840680321090488432649486066
:10162000084600680003000B0860694608798006D8
:101630000978090508432049096808431E490860DC
:10164000084600680121090608431B49086000207C
:10165000039003E000BF0398401C039017490398D0
:101660008842F7D300E000BF134800680121490613
:1016700008400028F7D010484068800880000E49D4
:10168000486008464068022108430B494860002032
:10169000039003E000BF0398401C03900D4903989A
:1016A0008842F7D300E000BF034840680C2108409F
:1016B0000828F8D11FBD00000010024010270000CC
:1016C00000D8B805B00000200020024000366E01AE
:1016D000001BB70040420F007047000010B51648CD
:1016E000006801210843144908600846406813490E
:1016F00008401149486008460068114908400E49F1
:101700000860084600680121890488430A49086086
:1017100008464068C32109048843074948600846D1
:10172000006808490840044908609F200004886058
:10173000FFF726FF10BD0000001002400CC0FFF8AC
:10174000FFFFF6FEFFFF8F0010B505480469006932
:10175000A0430349086100F0D7FD01F047FA10BD2E
:101760000040014010B5044804690069A0430249E3
:10177000086100F015FC10BD0044014010B505489B
:1017800004690069A04303490861FFF78FF900F07D
:1017900027FC10BD004801400349086909698143DD
:1017A000014A116170470000002C014001218907A6
:1017B000086909698143012292071161704700009D
:1017C0000349086909698143014A116170470000B2
:1017D000000400400349086909698143014A116115
:1017E00070470000000801400B48C068C007C00FE8
:1017F000002805D00848406901210843064948618E
:101800000548C06802210840002804D00248406909
:1018100008430149486170470038014010B5144839
:10182000C068C007C00F002805D0114840690121D9
:1018300008430F4948610E48C0680221084000284B
:1018400014D00C480078022802D0032806D102E008
:1018500001F0B8FA03E001F027FA00E000BF00BF92
:1018600003484069022108430149486110BD000056
:1018700000440040A80000202021020C01D01021CB
:101880001046020A01D010460839020901D010465C
:10189000091F820801D01046891E420801D0881E07
:1018A0007047081A704702E008C8121F08C1002AD2
:1018B000FAD170477047002001E001C1121F002AD1
:1018C000FBD1704710B502460F20000208400312FA
:1018D000012098409300134CE358D86090002346B1
:1018E00018588068FF23013318439300E358986029
:1018F00000BF90000B4B18584069C007C00F00286C
:10190000F7D0900018584069012318439300054C04
:10191000E358586190002346185800680005000DF0
:1019200010BD0000C400002070B504460D461646E8
:10193000284600F061F82348806901214902A1404E
:10194000084000283CD11F48806901214902A1407C
:1019500008431C4988610846C0684915A1400843EE
:101960001849C8600846C0684915A1408843154910
:10197000C860A00014490858406830210843A100FD
:10198000114A51584860A000114608588068072144
:1019900049028843A10051588860A00011460858A8
:1019A0008068012149020843A10051588860A000C5
:1019B00011460858406801210843A1005158486069
:1019C00070BD000000100240C4000020F7B50746BB
:1019D00014460026002507E038460199FFF772FFFC
:1019E000801986B2681CC5B2A542F5DB2146304697
:1019F000FEF7C8FB80B2FEBD10B50446F0202040C3
:101A0000202804D0E0B20022114600F09FFC10BD57
:101A1000F0B504460B46F025254028112107090F93
:101A2000394D6D690126760486403543364E756121
:101A3000082930DA8500354E75592D688F000F263C
:101A4000BE40B5438600314FBE59356085003E46E5
:101A500075592D688E001F46B7403D4386002B4FB9
:101A6000BE59356085003E4675592D6A8F000F2698
:101A7000BE40B5438600254FBE59356285003E46BF
:101A800075592D6A8E001746B7403D4386001F4F9B
:101A9000BE59356237E085001C4E75596D680E469B
:101AA000083EB7000F26BE40B5438600174FBE590B
:101AB000756085003E4675596D680E46083EB60055
:101AC0001F46B7403D438600104FBE5975608500E4
:101AD0003E4675596D6A0E46083EB7000F26BE4059
:101AE000B5438600094FBE59756285003E4675595B
:101AF0006D6A0E46083EB6001746B7403D43860065
:101B0000024FBE597562F0BD00100240CC000020AB
:101B100010B5002203210F2000F018FC10BD10B5F5
:101B2000012203210F2000F011FC10BDF0B591B08F
:101B300034222D4904A8FEF739FB2C480CC82C4848
:101B40002C49FEF7CBFC039102902B482B490CC883
:101B500003C9FEF7B5FC0546FEF766FE07463946A3
:101B600004A801F077F90446FEF722FE01910090E7
:101B7000039B029AFEF71AFD214A03C20022214B61
:101B80001F4903C9FEF73CFE05D800211D481C4A29
:101B90001160506010E000221B4B194903C9FEF789
:101BA0001BFE05D800211848154A1160506003E05B
:101BB000134903C9124A03C20022144B104903C936
:101BC000FEF78CFC04460022114BFEF77FFC064614
:101BD000FEF7D0FD0F490880084602880E49132001
:101BE00001F0C4F911B0F0BDEC3E0008180000206F
:101BF000B81E85EB51B8DE3F200000201000002009
:101C0000700000200000F03F0000F0BF001088408E
:101C10000022B040400000202721000070B58B4812
:101C20000068002875D10022894B8A4903C9FEF754
:101C3000E7FD31D288480068002829D187488849C3
:101C40000CC803C9FEF73CFC044600221346FEF70D
:101C5000D7FD05D20120834908607F4908601FE055
:101C60007E487F490CC803C9FEF72AFC04460022BF
:101C70001346FEF7B1FD06D202207A490860012022
:101C8000754908600CE0774800687649086007E00D
:101C900001207549086003E07348006872490860D4
:101CA0007148006801287ED16E480068012839D14A
:101CB0006E486F490CC803C9FEF702FC04460022B7
:101CC0001346FEF79DFD0ED800226A4B614903C9F9
:101CD000FEF796FD07D2FFF729FF0120664908604D
:101CE000FFF71DFFB1E0614861490CC803C9FEF769
:101CF000E7FB044600221346FEF76EFD0AD20022DF
:101D00005C4B544903C9FEF77BFD03D200F0C8F8D1
:101D10009BE04BE0FFF764F801204C490860FFF7B7
:101D2000F7FE92E04F480068022839D14F485049E9
:101D30000CC803C9FEF7C4FB044600221346FEF795
:101D40004BFD0ED800224B4B424903C9FEF758FD0C
:101D500007D2FFF7EBFE012047490860FFF7DFFEDF
:101D600073E0424842490CC803C9FEF7A9FB044688
:101D700000221346FEF744FD0AD200223D4B3549AE
:101D800003C9FEF73DFD03D200F08AF85DE00AE0EA
:101D9000FFF726F801202D490860FFF7B9FE54E04F
:101DA00000F07EF851E000F07BF84EE00022334B6B
:101DB000284903C9FEF724FD03D2012030490860F9
:101DC00003E02F4800682E4908602D48006800286D
:101DD00039D000222B4B1F4903C9FEF7FDFC2CD83C
:101DE0000022294B294903C9FEF7F6FC25D8002219
:101DF000254B274903C9FEF7EFFC1ED81E48006893
:101E0000012814D1002011490860174908601A49B7
:101E100008601B4908601F490860124908600E49A4
:101E200008601D49086001201C4908600DE0012080
:101E300006490860FEF7D4FF07E001200349086067
:101E4000FEF75AFF01E0FEF757FF70BD4800002083
:101E5000003CA940180000205C0000203000002059
:101E60000000002058000020440000202000002036
:101E7000100000200068A0404C000020005CA24040
:101E80005000002000B8A0400080664008000020FC
:101E9000280000205400002078000020840000204A
:101EA000F0B593B03422334906A8FEF77FF93248E3
:101EB00032490CC803C9FEF75FFA044630480CC823
:101EC0002046FEF759FA06460F462B482B490CC808
:101ED00003C9FEF7F5FA32463B4601910090FEF742
:101EE00065FB03910290FEF79FFC0146049006A853
:101EF00000F0B0FF0590FEF75BFC224A03C200220F
:101F0000214B204903C9FEF77BFC05D800211E4860
:101F10001C4A1160506012E000221C4B194903C991
:101F2000FEF75AFC05D800211848164A1160506087
:101F300005E0144801684068124A116050600022B0
:101F4000134B104903C9FEF7C9FA06460022114B8C
:101F5000FEF7BCFA0446FEF70DFC0F490880FFF7B8
:101F60007FFA0D4802880D49132000F0FFFF13B0DF
:101F7000F0BD0000503E00083000002000000020AE
:101F800018000020700000200000F03F0000F0BFAB
:101F9000001088400022B0404000002027210000AF
:101FA00010B50C480068012802D1FFF737FE0FE09A
:101FB00009480068012802D101F042FB08E0074807
:101FC0000068012802D1FEF79BFF01E0FFF768FFE0
:101FD00010BD000078000020800000207C00002060
:101FE00010B5AD480068012804D1F920C043AB49C1
:101FF00008604FE1AA480068012804D1F920C043D5
:10200000A649086046E1A7480068012804D1F920E4
:10201000C043A24908603DE1FFF77AFDA2489F490D
:1020200008600022A14BA24903C9FEF7E9FB0AD2CE
:102030000120994908600020994908609D4908607D
:102040009849086026E100229B4B994903C9FEF795
:10205000C3FB5FD20022994B994903C9FEF7D0FB1D
:1020600058D20022954B974903C9FEF7C9FB51D2BC
:102070000022954B954903C9FEF7C2FB4AD20022C4
:10208000914B934903C9FEF7BBFB43D20022914B0E
:10209000914903C9FEF7B4FB3CD200228D4B8F4916
:1020A00003C9FEF7ADFB35D200228D4B8A4903C927
:1020B000FEF792FB2ED20022894B884903C9FEF716
:1020C0008BFB27D20022874B804903C9FEF784FB94
:1020D00020D20022834B7E4903C9FEF77DFB19D233
:1020E0000022814B764903C9FEF776FB12D200220B
:1020F0007D4B744903C9FEF76FFB0BD20020664984
:10210000086001206649086000206A490860654946
:102110000860BFE066480CC800206749FEF75CFB1A
:102120007ED20022714B624903C9FEF755FBF7D2FC
:1021300000226C4B624903C9FEF762FB45D20022C4
:10214000684B604903C9FEF747FB3ED20022684B4B
:102150005B4903C9FEF740FB37D20022604B594967
:1021600003C9FEF74DFB30D20022624B574903C929
:10217000FEF746FB29D200225F4B554903C9FEF703
:102180002BFB22D200225D4B504903C9FEF724FBF2
:102190001BD20022524B4E4903C9FEF731FB14D229
:1021A0000022574B4C4903C9FEF72AFB0DD20022EF
:1021B000534B4A4903C9FEF70FFB06D20022514B8D
:1021C000454903C9FEF708FB4ED30022454B3D4964
:1021D00003C9FEF715FB52D20022424B384903C90E
:1021E000FEF7FAFA4BD20022414B364903C9FEF7FB
:1021F000F3FA44D200223A4B314903C9FEF700FBFF
:102200003DD200223B4B324903C9FEF7F9FA36D2E0
:102210000022394B2D4903C9FEF7DEFA2FD200E028
:102220002DE00022354B2A4903C9FEF7D5FA26D204
:1022300000222B4B254903C9FEF7E2FA1FD20022E8
:102240002F4B264903C9FEF7DBFA18D200222C4B8C
:10225000214903C9FEF7C0FA11D20022294B1F49B8
:1022600003C9FEF7B9FA0AD200200B4908600C49ED
:1022700008601049086001200A4908600AE000204F
:10228000054908600649086001200A4908600020E5
:102290000449086010BD000078000020680000209C
:1022A000800000207C000020C0FEFFFF003CA94011
:1022B000180000208400002000209C4000E07040B6
:1022C000000000203000002000806B401000002043
:1022D0002000002000003E400800002028000020D0
:1022E00000407F4000408F400068904000A4A04024
:1022F000007097400030964000208C4000909A403B
:10230000000059400000794010B5034801F05AFA26
:102310000249086010BD0000B01000003C00002021
:102320000146F020084000118000074A10588068DC
:102330000B071B0F01229A401040002801D00120FA
:1023400070470020FCE70000CC000020F0B50B46F1
:102350001446F025054029110207120F304D6D6912
:10236000012676048E4035432D4E7561082A18DA11
:102370008D002C4E75592D6897000F26BE40B54331
:102380008E00284FBE5935608D003E4675592D6828
:1023900096001F46B7403D438E00224FBE59356020
:1023A0001BE08D001F4E75596D681646083EB7003C
:1023B0000F26BE40B5438E001A4FBE5975608D0082
:1023C0003E4675596D681646083EB6001F46B74032
:1023D0003D438E00134FBE597560002C0FD0051180
:1023E000AD00104E75592D6907073F0F0126BE40FD
:1023F00035430611B6000B4FBE5935610EE005118D
:10240000AD00084E75596D6907073F0F0126BE40A4
:1024100035430611B600034FBE597561F0BD00008B
:1024200000100240CC000020F0B585B004460D46F7
:102430000121C90760694840064601208007E16A1A
:10244000FDF71FFF29460090FDF717FF0190216B54
:10245000FDF7BEFE0290A168FDF713FF0746314667
:10246000FEF708FA11D201208007E16AFDF709FFA3
:1024700029460290FDF701FF0746216BFDF7A8FEF4
:102480000646A168FDF7FDFE03E00121C90760696A
:10249000484003906169FEF7E3F931D20121C90791
:1024A00060694840064601208007E16AFDF7E9FEC1
:1024B00029460190FDF7E1FE0290216BFDF788FEB1
:1024C0000390A168FDF7DDFE07463146FEF7D2F91D
:1024D00011D201208007E16AFDF7D3FE294603905F
:1024E000FDF7CBFE0746216BFDF772FE0646A1689D
:1024F000FDF7C7FE05E00121C9076069484000E01B
:10250000606960620121C907206948400746284682
:10251000E16AFDF7AEFE02902168FDF7B2FE394692
:102520000390FEF7A7F908D22846E16AFDF7A1FE5D
:1025300007462168FDF7A5FE03E00121C9072069D0
:10254000484006462169FEF78BF91FD20121C907D1
:102550002069484006462846E16AFDF78AFE039056
:102560002168FDF78EFE07463146FEF783F908D253
:102570002846E16AFDF77DFE06462168FDF781FEEB
:1025800005E00121C9072069484000E02069E061B9
:102590000121C907E0684840074629466068FDF701
:1025A00070FE39460390FEF765F904D2294660684B
:1025B000FDF767FE03E00121C907E06848400646D1
:1025C000E168FEF74DF917D20121C907E0684840DC
:1025D000064629466068FDF754FE07463146FEF779
:1025E00049F904D229466068FDF74BFE05E0012158
:1025F000C907E068484000E0E0682062E06A2063C4
:10260000E562216AE069FDF7E3FD0646616AFDF7D0
:10261000DFFD05B0F0BD70B504467F239F22002189
:10262000084600F07DF900250AE0002604E0A0B28B
:1026300000F06CFA701CC6B2A02EF8DB681CC5B2A4
:10264000802DF2DB70BD00000EB5B0480068400878
:102650000021AF4A1346009201910290AD4A511EEB
:10266000012000F0A3FE002203212F20FFF76EFEC1
:10267000002203212D20FFF769FE002203212E20D6
:10268000FFF764FE012203212A20FFF75FFEA24824
:10269000806840690121490308439F49896848616E
:1026A0000A2000F0B9FF9C488068006901214903B5
:1026B0000843994989680861782000F0ADFF11202E
:1026C00000F0FEF9782000F0A7FFB12000F0F8F943
:1026D000012000F0CFF92C2000F0CCF92D2000F0E3
:1026E000C9F9B22000F0ECF9012000F0C3F92C2068
:1026F00000F0C0F92D2000F0BDF9B32000F0E0F9A2
:10270000012000F0B7F92C2000F0B4F92D2000F0E2
:10271000B1F9012000F0AEF92C2000F0ABF92D202A
:1027200000F0A8F9B42000F0CBF9072000F0A2F9DE
:10273000C02000F0C5F9A22000F09CF9022000F0B2
:1027400099F9842000F096F9C12000F0B9F9C5206C
:1027500000F090F9C22000F0B3F90A2000F08AF9E5
:10276000002000F087F9C32000F0AAF98A2000F0C9
:1027700081F92A2000F07EF9C42000F0A1F98A2016
:1027800000F078F9EE2000F075F9C52000F098F916
:102790000E2000F06FF9362000F092F90220002898
:1027A00006D0012808D002280AD0032810D10BE057
:1027B000C02000F05FF90BE0002000F05BF907E0BB
:1027C000A02000F057F903E0602000F053F900BFAB
:1027D00000BFE02000F074F90F2000F04BF91A2040
:1027E00000F048F90F2000F045F9182000F042F9F8
:1027F0002F2000F03FF9282000F03CF9202000F0C5
:1028000039F9222000F036F91F2000F033F91B209F
:1028100000F030F9232000F02DF9372000F02AF9DC
:10282000002000F027F9072000F024F9022000F032
:1028300021F9102000F01EF9E12000F041F90F20ED
:1028400000F018F91B2000F015F90F2000F012F924
:10285000172000F00FF9332000F00CF92C2000F0C5
:1028600009F9292000F006F92E2000F003F93020A4
:1028700000F000F9302000F0FDF8392000F0FAF8FF
:102880003F2000F0F7F8002000F0F4F8072000F0F7
:10289000F1F8032000F0EEF8102000F0EBF82A2009
:1028A00000F00EF9002000F0E5F8022000F0E2F858
:1028B000002000F0DFF8822000F0DCF82B2000F090
:1028C000FFF8002000F0D6F8032000F0D3F8002035
:1028D00000F0D0F8832000F0CDF8F02000F0F0F800
:1028E000012000F0C7F8F62000F0EAF8002000F020
:1028F000C1F83A2000F0E4F8052000F0BBF82920E8
:1029000000F0DEF80548FFF786FE0EBDB00000209F
:10291000FF0F00002C050000CC000020FFFF00008E
:10292000F8B504460D4616461F462A2000F0C8F8A2
:10293000002000F09FF8611CC8B200F09BF8002056
:1029400000F098F8711CC8B200F094F82B2000F049
:10295000B7F8002000F08EF8A91CC8B200F08AF881
:10296000002000F087F8B91CC8B200F083F82C20D2
:1029700000F0A6F8F8BD0000FEB506460D46174665
:10298000002428E02B192919F21D3046FFF7C8FF53
:1029900038462038000111494018005D00900020A1
:1029A000019013E00098C007C00F002804D01F203A
:1029B000C00200F0ABF802E0094800F0A7F8009868
:1029C000401000900198401CC0B201900198082866
:1029D000E8DB601CC4B2102CD4DBFEBD883F0008CD
:1029E000FFFF0000FFB589B0074616461C460A2CBB
:1029F00000DD0A24601CC4B2002E06DA324612A1A1
:102A0000684601F0A9F8C5B20BE0202069460870BD
:102A100032460DA100A8013001F09EF8C5B2681C35
:102A2000C5B204E0202069464855681CC5B2A542DD
:102A3000F8DB0020694608556A4638460A9900F0D6
:102A400005F80DB0F0BD000025640000F8B506469D
:102A50000F461546002409E02A573B05190CE300F0
:102A60009B1998B2FFF788FF601C84B2285D00288C
:102A7000F2D1F8BD01B51148806840690121C90350
:102A800008430E49896848610C4880680069012143
:102A900089030843094989680861012300226946BE
:102AA000184600F04DFD0548806800690121C90302
:102AB000084302498968086108BD0000CC00002075
:102AC00001B51148806840690121C90308430E49D6
:102AD000896848610C48806840690121890308437E
:102AE000094989684861012300226946184600F0B7
:102AF00027FD0548806800690121C9030843024990
:102B00008968086108BD0000CC00002038B5044683
:102B10001248806840690121C90308430F49896848
:102B2000486121126846017044700C488068006951
:102B300001218903084309498968086102230022A9
:102B40006946012000F0FCFC04488068006901210E
:102B5000C903084301498968086138BDCC000020D9
:102B600088B0FEF705F819481949086019481A494C
:102B70000CC803C9FDF700FC044618480CC82046E1
:102B8000FDF7FAFB01910090124813490CC803C9E4
:102B9000FDF796FC0646019B009AFDF707FD002213
:102BA0000F4B03910290FDF799FC05910490FDF7FE
:102BB000E1FD80B2069008E00A4801880A480088D2
:102BC000069A00F097FBFEF74BFBF5E7C0FEFFFF10
:102BD00068000020300000200000002018000020C5
:102BE000000059404200002040000020F0B58DB0A8
:102BF00034221E496846FDF7D9FA1D4909681D4A65
:102C00001268881AFDF74AFD074639466846FFF7FD
:102C10000BFC054618480068FDF740FD06462946AE
:102C2000FDF7D6FA0446FDF76DFD14490880084605
:102C300000881349884203DB08461049088003E0F6
:102C40000E4800880D4908800C4800880A49086031
:102C50000A4802880B49022000F088F9002208493E
:102C6000E431022000F082F90DB0F0BD1C3E0008F6
:102C70003C00002068000020A4000020420000204A
:102C8000282300000B140000044840680449084051
:102C90000249486001200349087070474000024023
:102CA000FEFF00000A0100201048406840681049FB
:102CB000104A127888540F480078401C0D4908705B
:102CC00008460078012805D109480078A52801D0D8
:102CD0000020087007480078032805D10020054926
:102CE00008700120044908707047000000010020AE
:102CF0000B0100200E0100200F01002004480549AF
:102D000088600846406801210843024948607047CE
:102D1000B824000040000240FFB583B006460C46D0
:102D2000002700200190059800281AD03546002D74
:102D300000DA6D4213E028460699FDF723FA303198
:102D400048B2207028460699FDF71CFA05460198FE
:102D5000401CC0B20190002D00D101E0641CEAE7E4
:102D600021E002961DE006990298FDF7F5F9CFB231
:102D70000A2F03DB38463730C7B202E0384630301E
:102D8000C7B278B2207006990298FDF7E5F9029073
:102D90000198401CC0B201900298002800D101E0C7
:102DA000641CE0E700BF019807B0F0BDF8B5044629
:102DB0000D4616466846047045708670FEF7A8FBFF
:102DC000F8BD00001048406840681049104A127869
:102DD00088540F480078401C0D4908700846007858
:102DE000012805D109480078A52801D000200870E5
:102DF00007480078032805D1002005490870012004
:102E00000449087070470000000100208201002082
:102E100085010020860100200448406804490840DC
:102E20000249486001200349087070474000024091
:102E3000FEFF0000540100204B204001044988603F
:102E40000846406801210843014948607047000076
:102E500040000240FEB504460D467F20C005A16932
:102E6000FDF707FA0190616AFDF70BFA064628465E
:102E7000E169FDF7FEF90190A169FDF702FA074645
:102E80003146FDF7A5F96062E5612946206AFDF744
:102E90009FF9206200216068FDF7E2FC3DD0616887
:102EA000E068FDF72BFA01900121C907E06848406E
:102EB00007466168FDF722FA0090216AFDF7D0FC11
:102EC00001D2206A07E00121C907E06848400746AF
:102ED0006168FDF713FA06460199FDF7C1FC17D2A8
:102EE0000121C907E068484007466168FDF706FA16
:102EF0000646216AFDF7B4FC01D2206A0CE00121EC
:102F0000C907E068484006466168FDF7F7F903E045
:102F10006168E068FDF7F2F92062616AA068FDF778
:102F2000B0F90190216A6068FDF7ABF90746E169E5
:102F30002068FDF7A6F939460090FDF749F90646E5
:102F40000199FDF745F9FEBD30B50246002008E0C5
:102F50004C1E241A1357155C4C1E241A1555135475
:102F6000401C4C088442F3D830BD0000F0B585B059
:102F700004460F4616462448864201D905B0F0BDE6
:102F80002007800E21490858C06A80B2049030465C
:102F9000FDF78FFB1E490090FDF7B0F902900498F1
:102FA000FDF787FB01900299FDF76BF90390FDF7A0
:102FB000A9FB85B20F200003384001210903401A04
:102FC00006D0401A0AD0401A0ED0401A18D111E08B
:102FD0002007800E0D490858456311E02007800E38
:102FE0000A49085885630BE02007800E07490858F6
:102FF000C56305E02007800E04490858056400BF3A
:1030000000BF00BFBAE7000050C30000E40000208A
:1030100000504347FFB585B004460E4690490898D6
:10302000884201D909B0F0BD8E4807990068FDF7C4
:1030300093F84000070C8B4807990068FDF78CF85F
:10304000791C0390FDF788F880B204900898FDF78A
:1030500030FB85490090FDF751F902900498FDF787
:1030600028FB01900299FDF70CF90390FDF74AFB4C
:1030700085B2304600F0FEF80F2000032040002803
:103080000BD07A488069FF21090121400A110121F2
:1030900091400843754988610AE07448C069FF217E
:1030A000090121400A110121914008436F49C8617B
:1030B0002107890E6E4A51580498C8622007800E75
:1030C00011460858876280202107890E51580860F0
:1030D00000022107890E515848640F200003304038
:1030E00001210903401A06D0401A2CD0401A54D0AE
:1030F000401A27D17AE02007800E5D490858806980
:10310000602108432107890E594A515888612007D8
:10311000800E114608588069082108432107890E4E
:10312000515888612007800E11460858006A012115
:1031300008432107890E515808622007800E114666
:10314000085845637DE02007800E4949085880698A
:103150000321490308432107890E454A51588861D4
:103160002007800E1146085880690121C9020843D2
:103170002107890E515888612007800E1146085892
:10318000006A102108432107890E51580862200760
:10319000800E11460858856353E02007800E34499D
:1031A0000858C069602108432107890E304A5158E8
:1031B000C8612007800E11460858C06908210843DD
:1031C0002107890E5158C8612007800E1146085802
:1031D000006AFF21013108432107890E5158086216
:1031E0002007800E11460858C5632AE02007800E8C
:1031F0001F490858C0690321490308432107890E64
:103200001B4A5158C8612007800E11460858C069F2
:103210000121C90208432107890E5158C8612007BE
:10322000800E11460858006A01210903084321074E
:10323000890E515808622007800E1146085805640F
:1032400000BF00BF2007800E09490858006801210F
:1032500008432107890E064A5158086000BFE1E67D
:1032600050C30000B000002000504347001002404F
:10327000E400002010B504460F21090221400A1283
:10328000E0B20B21FEF7C4FB10BD10B500220421F3
:103290001C20FFF75BF8FF230B335A1EE121490284
:1032A000002000F0A5FB0121002000F02FFC10BD44
:1032B00070B505460C460DE01C20FFF731F80028DC
:1032C00001D0204670BD1E222946002000F006FCD9
:1032D0001E351E3C1E2CEFD81C20FFF721F80028BD
:1032E00001D02046EEE722462946002000F0F6FBFA
:1032F0000020E7E7F7B5002600270024AA22214690
:10330000641C29484254FF222146641C4254F12285
:103310002146641C425404222146641C42546846DF
:1033200002782146641C204842546846427821466F
:10333000641C1D484254684602792146641C1A48A0
:103340004254684642792046611CCCB216490A5460
:103350006846027A2146601CC4B21348425468464B
:10336000427A2146601CC4B20F484254002506E050
:103370000D48405D8019C6B2B819C7B26D1C0A4825
:10338000C078001DA842F3DC2046611CCCB206497F
:103390000E542046611CCCB203490F54214602480A
:1033A000FFF786FFFEBD000088010020F8B5044647
:1033B0000D4616461F463A4631462846069B00F003
:1033C000E9F8002C07D15B48806901210903084313
:1033D0005849886106E05748C069012189030843BC
:1033E0005449C861A0005449085880690421084321
:1033F000A100514A51588861A00011460858C0697F
:1034000008210843A1005158C8610798002806D038
:10341000012818D002282AD0032850D13BE0A00070
:1034200045490858C06902218843A100424A5158C1
:10343000C861A00011460858C06901210843A100D5
:103440005158C8613BE0A0003B490858C0690221BF
:103450008843A100384A5158C861A0001146085855
:10346000C06940084000A1005158C86127E0A00091
:1034700031490858C06902210843A1002E4A515819
:10348000C861A00011460858C06901210843A10085
:103490005158C86113E0A00027490858C0690221AB
:1034A0000843A100244A5158C861A0001146085899
:1034B000C06940084000A1005158C86100BF00BF6A
:1034C000A0001D4908588069012189028843A10094
:1034D000194A51588861A00011460858C069102146
:1034E0000843A1005158C861144808990068FCF7C6
:1034F00033FEA100104A51580862A0001146085836
:10350000C06904218843A1005158C861A000114638
:103510000858806918210843A10051588861A0000B
:1035200011460858806901210843A100515888615B
:10353000F8BD000000100240DC000020B0000020B8
:1035400070B51FE000BF8400114D2C59A468E4073A
:10355000E40F002CF7D00C7885000D4E75592C60C7
:10356000491C002A0ED000BF8400094D2C59A468C4
:1035700002252C40002CF7D08400054D2C5964689E
:103580001470521C1C465B1E002CDBD170BD000069
:10359000DC000020F8B506460F4614461D460F21F4
:1035A000090231400A12F0B20B21FEF731FA0F2165
:1035B000090239400A12F8B20B21FEF729FA0B482A
:1035C000844207D00F21090221400A12E0B20421EF
:1035D000FEF71EFA0548854207D00F21090229404F
:1035E0000A12E8B20B21FEF713FAF8BDFF0F000034
:1035F0000021084A1161411E51610021916105219C
:10360000116100BF03490969012212041140002918
:10361000F8D0704700E000E070B5044608E07D2176
:10362000C90006480068FCF797FD0546FFF7E0FF74
:103630002046641E0028F2D170BD0000B0000020BA
:1036400010B54C48006800287ED100224A4B4B49F7
:1036500003C9FDF7C1F859D20022494B494903C9B2
:10366000FDF7CEF852D20022454B474903C9FDF77A
:10367000C7F84BD20022454B454903C9FDF7C0F8B6
:1036800044D20022414B434903C9FDF7B9F83DD26A
:103690000022414B414903C9FDF7B2F836D200225E
:1036A0003D4B3F4903C9FDF7ABF82FD200223D4BFC
:1036B0003A4903C9FDF790F828D20022394B38491E
:1036C00003C9FDF789F821D20022374B304903C9DD
:1036D000FDF782F81AD20022334B2E4903C9FDF7B9
:1036E0007BF813D20022314B264903C9FDF774F849
:1036F0000CD200222D4B244903C9FDF76DF805D2E9
:1037000001202B490860FEF70AFA03E02848006808
:10371000274908602648006801282AD10022254B45
:103720001E4903C9FDF758F80FD20022214B1C494E
:1037300003C9FDF751F808D201200E490860FEF7D1
:10374000E7F9FEF7ADFB14E00AE0692040011A49F1
:1037500008800846028819491320FFF707FC08E093
:103760000020134908600349086015490860FEF706
:1037700097FB10BD6400002000209C401800002032
:1037800000E07040000000203000002000806B400E
:10379000100000202000002000003E400800002013
:1037A0002800002000407F4000408F40006890408B
:1037B00060000020008047404000002027210000DA
:1037C0008000002010B501460A07920E074B9A5858
:1037D000526A10B20A07920E9A58526901231A438C
:1037E0000B079B0E014CE3585A6110BDE40000200A
:1037F00070B504460D4616462007000F032800DD6D
:1038000070BD284600F076F8304600F073F80F20BF
:103810000003204000280BD033488069FF210901B4
:1038200021400A110121914008432F4988610AE093
:103830002D48C069FF21090121400A110121914051
:1038400008432949C86129482107890E284A515847
:10385000C86200202107890E515888622007800E17
:10386000114608588069012108432107890E5158E3
:1038700088612007800E114608588069FF210131B8
:1038800008432107890E515888612007800E114690
:103890000858006A112108432107890E515808620F
:1038A0002007800E1146085880680321084321072D
:1038B000890E515888602007800E1146085800680C
:1038C000022108432107890E515808602007800E05
:1038D000114608580068012108432107890E5158F4
:1038E000086000BF8CE7000000100240FFFF0000EE
:1038F000E400002010B504460F21090221400A12FD
:10390000E0B20421FEF784F810BD0000F0B585B0E8
:1039100004460F46154631A103C904910390394668
:1039200030480068FCF718FC4000060C39462D486A
:103930000068FCF711FC711C0090FCF70DFC80B2D4
:1039400001900F200003204000280BD026488069FA
:10395000FF21090121400A11012191400843224918
:1039600088610AE02048C069FF21090121400A114D
:103970000121914008431C49C8612107890E1B4A57
:1039800051580198C8622007800E11460858866277
:103990002007800E0858C068012108432107890EBE
:1039A0005158C8602007000F03A9095C68460172DE
:1039B000A907890F41720121817202A8FDF7A8FDB4
:1039C0002007800E09490858006801210843210793
:1039D000890E064A5158086005B0F0BD0D110F1050
:1039E00013151600B000002000100240E400002073
:1039F000F8B504460F4615461E463146284600F0E7
:103A000059F8002C02D0012C4AD124E025488069C5
:103A10000121890308432349886139462248006807
:103A2000FCF79AFB00092149086239461E480068E4
:103A3000FCF792FB0007000F1C4948620846C0696A
:103A4000302108431949C861084680691921084393
:103A50001649886124E01348C069012149040843DC
:103A60001049C861394610480068FCF775FB000929
:103A70000F49086239460C480068FCF76DFB0007E7
:103A8000000F0B4948620846C069302108430849C5
:103A9000C86108468069192108430549886100BF4B
:103AA00000BFF8BD00100240B00000200038014007
:103AB0000044004070B504460D460F210902214024
:103AC0000A12E0B20B21FDF7A3FF0F2109022940E2
:103AD0000A12E8B20421FDF79BFF70BD30B50FE07C
:103AE0000B788400084D2C592360491C00BF8300CB
:103AF000054CE3589B68DB07DB0F002BF7D0521E09
:103B0000002AEDD130BD00000001002070B5044650
:103B10000D46002D0AD0A0000D4908580069022169
:103B20000843A1000A4A5158086109E0A000084969
:103B30000858006902218843A100054A51580861CC
:103B4000EAB2044908570021FFF730F970BD0000C0
:103B500000010020080100200FB4F0B591B0044628
:103B6000002518A810904BE10021179841560F919D
:103B70000F9825287ED11798401C00211790415698
:103B8000662946D00EDC61291BD006DC252972D0BF
:103B900046293FD058296FD1E9E0632912D0642922
:103BA000F9D118E0732968D006DC692914D06F298F
:103BB0007ED07029EFD1FDE075297AD07829EAD13D
:103BC000D4E013E110990A78091D50B210912070C9
:103BD000641C6D1C0AE100BF109880C810900A2375
:103BE000012206A93846FFF797F80646002F04DAA7
:103BF0002D2006A98855701CC6B2314606A8FFF7CD
:103C0000A3F9324606A92046FCF7D0FAA419AD194B
:103C1000ECE000BF1098C01DC008C0000146109025
:103C200000684968109A083210920591049005992D
:103C30000498FCF77BFD07460A23012206A9FFF73B
:103C40006BF806460022134605990498FCF7C4FD5C
:103C500004D22D2006A98855701CC6B2314606A88C
:103C6000FFF772F9324606A92046FCF79FFAA4191D
:103C7000AD1903E0BBE0B3E0B7E08EE0059904982E
:103C8000FCF754FD0746FCF71BFD01910090059BD6
:103C9000049AFCF71BFC00225F4B03910290FCF797
:103CA0001DFC05910490002213460599049801E03B
:103CB00046E02FE0FCF790FD0BD005990498FCF747
:103CC00035FD07460A23012206A9FFF725F8064617
:103CD00008E03021684641770177C17681764176E8
:103CE0000176062604E0302006A98855701CC6B26D
:103CF000062EF8DB2E2006A98855701CC6B2314668
:103D000006A8FFF721F9324606A92046FCF74EFA2D
:103D1000AD196BE0109880C810900A23002206A904
:103D20003846FEF7F9FF0646314606A8FFF70CF9BC
:103D3000324606A92046FCF739FAA419AD1955E018
:103D4000109880C810900823002206A93846FEF774
:103D5000E3FF0646314606A8FFF7F6F8324606A905
:103D60002046FCF723FAA419AD193FE000BF1098D4
:103D700080C810901023002206A93846FEF7CCFF19
:103D80000646314606A8FFF7DFF8324606A9204668
:103D9000FCF70CFAA419AD1928E0109901C910918B
:103DA00004E001782170641C6D1C401C017800291E
:103DB000F7D11BE0109840C810901023002206A9EC
:103DC0003046FEF7A9FF0746082106A8FFF7BCF812
:103DD000082206A92046FCF7E9F90834083505E071
:103DE00025202070641C6D1C00E000BF04E01798C3
:103DF00000782070641C6D1C1798401C179000BF41
:103E000017980078002800D0AEE61090284611B030
:103E1000F0BC08BC04B0184780842E4100007041FB
:103E20000000C04000000000000070410000704130
:103E3000000070410000803F000000000000000012
:103E40000000000000000000000000000000000072
:103E50000000803F00000000000000000000A040C3
:103E600000007041000070410000803F0000000031
:103E70000000000000000000000000000000000042
:103E8000000000000000803F000000000000000073
:103E90000000A04000007041000070410000803F21
:103EA0000000000000000000000000000000000012
:103EB00000000000000000008FC2753F00000000FD
:103EC000000000000000A0400000704100007041B0
:103ED0000000803F00000000000000000000000023
:103EE0000000000000000000000000003D0AF73F55
:103EF000000000009A99993F0000A0400000704126
:103F0000000070410000803F000000000000000041
:103F100000000000000000000000000000000000A1
:103F20003D0AB73F00000000CDCCCC3E0000A040D1
:103F300000007041000070410000803F0000000060
:103F40000000000000000000000000000000000071
:103F500000000000E17A943E000000003333B33EDD
:103F60000000A04000007041000070410000803F50
:103F70000000000000000000000000000000000041
:103F80000000000000000000000000000000000031
:103F900000000000000000000000000808080808F9
:103FA000080800000808000000482424120000004F
:103FB00000000000000000000000004848487E2487
:103FC00024247E24242400000000103C5252121CA1
:103FD00030505052523C1010000000222515150D93
:103FE0002A585454522200000000000C1212120AE7
:103FF00076252919916E00000006040402000000D5
:104000000000000000000000004020101008080818
:1040100008080810102040000002040808101010C2
:1040200010101008080402000000000008086B1CB3
:104030001C6B0808000000000000000000101010B9
:10404000FE10101000000000000000000000000042
:104050000000000006040402000000000000000050
:104060007E000000000000000000000000000000D2
:104070000000000006060000000040202020101074
:10408000080808040402020000000018244242420A
:104090004242424224180000000000101C10101080
:1040A00010101010107C00000000003C4242424002
:1040B00020100804427E00000000003C42424020E4
:1040C00018204042423C00000000002030302824EC
:1040D0002422FE2020F800000000007E0202021EC2
:1040E00022404042221C0000000000182402023A34
:1040F00046424242443800000000007E4220201028
:1041000010080808080800000000003C4242422451
:1041100018244242423C00000000001C224242425D
:10412000625C4040241800000000000000001818E5
:104130000000000018180000000000000000000847
:1041400000000000000808080000004020100804DB
:1041500002040810204000000000000000007E0063
:10416000007E000000000000000000020408102093
:1041700040201008040200000000003C424246209B
:1041800010101000181800000000001C225A55558D
:104190005555553A423C0000000000080818141418
:1041A000243C224242E700000000001F2222221E7F
:1041B00022424242221F00000000007C42420101D4
:1041C00001010142221C00000000001F2242424265
:1041D00042424242221F00000000003F4212121ED3
:1041E00012120242423F00000000003F4212121E23
:1041F00012120202020700000000003C222201010C
:1042000001712122221C0000000000E742424242CC
:104210007E42424242E700000000003E08080808D3
:1042200008080808083E00000000007C101010106C
:10423000101010101010110F0000007722120A0E3B
:104240000A12122222770000000000070202020276
:1042500002020202427F0000000000773636363646
:10426000362A2A2A2A6B0000000000E346464A4A02
:1042700052525262624700000000001C224141413C
:1042800041414141221C00000000003F42424242A5
:104290003E020202020700000000001C22414141D0
:1042A0004141414D321C60000000003F4242423E0D
:1042B0001212222242C700000000007C4242020487
:1042C00018204042423E00000000007F49080808D4
:1042D00008080808081C0000000000E742424242AB
:1042E00042424242423C0000000000E74242222497
:1042F00024141418080800000000006B2A2A2A2A37
:104300002A36141414140000000000E74224241874
:104310001818242442E70000000000772222141419
:1043200008080808081C00000000007E212010106A
:1043300008040442423F0000007808080808080802
:1043400008080808080878000000020404040808A7
:104350000810102020204040001E101010101010D7
:104360001010101010101E00001824000000000093
:10437000000000000000000000000000000000003D
:1043800000000000000000FF000608000000000020
:104390000000000000000000000000000000001C01
:1043A00022302C22326C0000000000000302021AAE
:1043B00026424242261A0000000000000000003899
:1043C0004402020244380000000000006040407CCB
:1043D0004242424262DC0000000000000000003C5B
:1043E00042427E02423C0000000000003048083E8D
:1043F00008080808083E0000000000000000007CDB
:1044000022221C023C42423C000000000302023A0D
:104410004642424242E700000000000C0C00000E41
:1044200008080808083E000000000030300000388E
:10443000202020202020221E000000000302027203
:10444000120A0E1222770000000000080E08080869
:1044500008080808083E0000000000000000007F77
:104460009292929292B70000000000000000003B80
:104470004642424242E70000000000000000003CCB
:1044800042424242423C0000000000000000001B8B
:1044900026424242261A020700000000000000588F
:1044A00064424242645840E000000000000000778F
:1044B0004C040404041F0000000000000000007C05
:1044C00042023C40423E0000000000000008083E5E
:1044D00008080808483000000000000000000063E1
:1044E0004242424262DC000000000000000000770F
:1044F000222214140808000000000000000000DB65
:1045000091525A2A24240000000000000000006E8E
:10451000241818182476000000000000000000E7AE
:104520004224241818080806000000000000007E3D
:1045300022100808447E000000C0202020202020F7
:10454000102020202020C00010101010101010107B
:1045500010101010101010100003040404040404C0
:104560000804040404040300045A200000000000AE
:104570000000000000000000DBDE5DEF5DEF7DEF7E
:104580005DEF5DEF5DEF5DEF5DEF5DEF5DEF5DEFCB
:104590005DEF5DEF5DEFBEF7FFFFDEFF38C6928C8B
:1045A0008E6B6E6B107C96AD3CE7FFFFFFFF7DEFDF
:1045B0005DEF5DEF5DEF5DEF5DEF5DEF5DEF5DEF9B
:1045C0005DEF5DEF5DEF5DEF5DEFFFFFFFFFFFFF75
:1045D000FFFFFFFFFFFFFFFFFFFFFFFFFFFFFFFFEB
:1045E000FFFFFFFFFFFF5DEF159D4F636C420A3237
:1045F0008829461925194521E8318E6B18BEFFFF21
:10460000FFFFFFFFFFFFFFFFFFFFFFFFFFFFFFFFBA
:10461000FFFFFFFFFFFFFFFF5DEFFFFFFFFFFFFF5C
:10462000FFFFFFFFFFFFFFFFFFFFFFFFFFFFFFFF9A
:10463000FFFFDFFFF59C0F53104B51530F4B6C3AAC
:10464000E93167212519E410A308620083088A4A2A
:1046500059C6FFFFFFFFFFFFFFFFFFFFFFFFFFFF49
:10466000FFFFFFFFFFFFFFFF5DEFFFFFFFFFFFFF0C
:10467000FFFFFFFFFFFFFFFFFFFFFFFFFFFFFFFF4A
:104680001CE74F5BB363B87CF56311434D32EA29F5
:10469000882126190519051904110411E410830055
:1046A000A308728CFFFFFFFFFFFFFFFFFFFFFFFF6D
:1046B000FFFFFFFFFFFFFFFF5DEFFFFFFFFFFFFFBC
:1046C000FFFFFFFFFFFFFFFFFFFFFFFFFFFFDBDE3F
:1046D0004B3AF042356C544BB1322E2AEB21A921D2
:1046E00067190519041104110411041104110519A5
:1046F000E4104200AF73FFFFFFFFFFFFFFFFFFFF6C
:10470000FFFFFFFFFFFFFFFF5DEFFFFFFFFFFFFF6B
:10471000FFFFFFFFFFFFFFFFFFFFFFFF5DEF09321E
:104720004C32104B8F324F2A2E2ACC1989198921ED
:104730004719051904110411C410C41004110411FF
:104740000411E41042003184FFFFFFFFFFFFFFFF71
:10475000FFFFFFFFFFFFFFFF5DEFFFFFFFFFFFFF1B
:10476000FFFFFFFFFFFFFFFFFFFFFFFFEC524719B7
:104770004C320B2AEC21EC210C22915BEE4A061103
:1047800026190419E410E410A7296621A3080519C5
:1047900004110411E4108200F7BDFFFFFFFFFFFFCB
:1047A000FFFFFFFFFFFFFFFF5DEFFFFFFFFFFFFFCB
:1047B000FFFFFFFFFFFFFFFFFFFF35A583088821F5
:1047C00088218921AA218A216B42718CFFFF728C7A
:1047D00083080411C4082942FBDE5DEFEC5A83080C
:1047E0000411041104118308E831DFFFFFFFFFFF0C
:1047F000FFFFFFFFFFFFFFFF5DEFFFFFFFFFFFFF7B
:10480000FFFFFFFFFFFFFFFFBEF7C731C4102519F1
:10481000261947194719A8298A52284A55ADFFFF7A
:10482000E831A30805194D6B4D6BFFFF7DEF452166
:10483000C410041104110411620076ADFFFFFFFFE4
:10484000FFFFFFFFFFFFFFFF5DEFFFFFFFFFFFFF2A
:10485000FFFFFFFFFFFFFFFF96B562000411041981
:1048600005110519C4088B4AB6B55DEFF7BDFFFF0A
:104870008E6B62002942AA5A0842FFFFFFFFCC520A
:104880008308041104110411A308AD52FFFFFFFFB8
:10489000FFFFFFFFFFFFFFFFBEF7FFFFDFFFDBDED6
:1048A000FFFFFFFFFFFFFFFF4E63620004110411D3
:1048B0000411E41062008E63FFFFFFFFFFFFFFFFA4
:1048C000CF730100F39C2C6396B5FFFFFFFF2D5BB8
:1048D0008300041104110411E41067213DEFFFFF70
:1048E000FFFFFFFFFFFFFFFFB7B576AD7DEFCB52B8
:1048F000B394FFFFFFFFDFFFE831A30804110411A9
:1049000004110411A3084942FFF7FFF7FFFFFFFF5F
:104910006A4A01007284FFFFFFFFFFF7DFEF093AE9
:10492000A3080411041104110411051118BEFFFF9E
:10493000FFFFFFFFFFFFFFFFF07B6200E831C731A1
:10494000410035A5FFFF5DEF4621C410041104119D
:1049500004110411E410A308769DFFF7FFFFB7AD23
:10496000A308A308C7319EE7FFF7FFF776A5A308C2
:10497000E4100411041104110511051135A5FFFF00
:10498000FFFFFFFFFFFFFFFFDBDEA7298300C4104F
:10499000C410C4101CE79EEF0511E41004110411AB
:1049A000041104110419C408E510D16BD16BC508BA
:1049B0006400A50843002B32779DB3842519C410E9
:1049C000041104110411041125192609359DFFFF56
:1049D000FFFFFFFFFFFFFFFFFFFFAF736200041940
:1049E000051982000D5B8E9B6210051104110411E4
:1049F0000419E41085000511C439815A407B229CBA
:104A000043AC03A4839B82728249C218A400C500F0
:104A1000E41004190411051947196711EC5ABEFF77
:104A2000FFFFFFFFFFFFFFFFDFFFDBD6C410E41037
:104A300004110511A41801C08388E40005190419A4
:104A4000C5084421438323D542FEE4FE27FF07FF28
:104A5000A4FE64FE03FEA3FDE2FC42EC83B32462E9
:104A6000E510C40804192619A81987210090D3BCA1
:104A7000FFFFFFFFFFFFFFFF5DEFFFFFF07B420047
:104A800005190511832801D044F8A348E400C5089E
:104A9000445A02EDE2FD02FE66FE74FFB8FF73FFAA
:104AA000E7F6A6F645F6A4F5C3FC62FCC2FCC2FC20
:104AB000E3CBC449061188198701A49001F8EC9A48
:104AC000FFFFFFFFFFFFFFFF5DEFFFFF9EF7E831F6
:104AD00083000509824001C023F885F0A348A400A3
:104AE000445A02FD23CCC2DC04FE28FE48F646F6FA
:104AF00024F6E4F564FDE3FC62FCC2FC02E402DCA3
:104B0000E2FCA47A48016701C47824F802F884B072
:104B10007DE7FFFFFFFFFFFF5DEFFFFFFFFFDBDE36
:104B20002519A300C43802E022D844F8A6F8A478D6
:104B30006300432183728339829B21F561FD22FD4D
:104B4000E2FCA2FC42FC42FC42FC22AB8341C39249
:104B5000045226012519A49844F823F802F8A4D099
:104B60009EEFFFFFFFFFFFFF5DEFFFFFFFFFFFFF78
:104B70009AD68729A50043B822F823E065F8E8F81B
:104B800007C983484200A30084006329A27A62B364
:104B9000A2CB62D302BB828A8339A400E500E50080
:104BA000E508C46064D844F824F823F802F8838840
:104BB000DBC6FFFFFFFFFFFF5DEFFFFFFFFFFFFF14
:104BC000FFFF3DE7505B083123E843F844F065F808
:104BD00009F9ABF989D10689A348421802004200BD
:104BE00061008200620062008300A320C450A58897
:104BF00085D865F844F844F823F823F803D08210E8
:104C0000C7295DEFFFFFFFFF5DEFFFFFFFFFFFFF26
:104C1000FFFFFFFFFFFF6C32A53802D823F865F8CD
:104C200066F8A7F84AF90CFA4DFA4CEA0BD2A9B982
:104C300068B147A927B107B907D1E7E8C7F8A7F8CE
:104C400065F865F844F823F803F802D0A3280509AD
:104C5000C408EC5AFFFFFFFF5DEFFFFFFFFFFFFF00
:104C6000FFFFFFFFFBDE0519C400A741E6C003F804
:104C700086F8A7F887F886F8C7F829F98AF9ABF912
:104C8000ABF98BF96AF929F908F9C7F8A6F886F89B
:104C900065F864F823F802F006B12529E400E41071
:104CA00025192519149DFFFF5DEFFFFFFFFFFFFF93
:104CB000FFFFFFFF96AD620082083595BACE8BA24A
:104CC00044D025F887F8A7F8C7F8A7F887F886F83A
:104CD00086F886F887F8A7F8A7F8A6F885F865F8A3
:104CE00064F824F064B80D93BBB6CF638308041155
:104CF000E4106621493A5DEF5DEFFFFFFFFFFFFF24
:104D0000FFFFFFFFD3944200E410BBCEFFFFBEE7DE
:104D100076B5CCAA07C145E045F846F866F886F8AE
:104D200086F886F886F865F845F865F865E844D0B1
:104D300043A8018882903CD7FFEF55958308041162
:104D4000041105194619B3945DEFFFFFFFFFFFFF44
:104D5000FFFFFFFFB394410086215DDFFFFFFFFFF0
:104D6000FFFFDFE77AC6D3B44EB32AC268D1E6E0CC
:104D7000A6E8A5E8A5E8E6D888C906A922A802A859
:104D800000A000C800D8F7E5FFE7F8ADC410E410B4
:104D90000411E41005118B4A5DEFFFFFFFFFFFFFD9
:104DA000FFFFFFFF55A54100A7295DDFFFF7FFFFCC
:104DB000FFFFFFFFFFFFFFFFFFEF7DDFDBCE59CEE1
:104DC000F8CDD7CDF7C579CEFBBEABA203F045F841
:104DD00042D043E800F072D4FFDF39AEE410E410B3
:104DE0000411E410051187295DEFFFFFFFFFFFFFAE
:104DF000FFFFFFFF59CE830846211CD7FFF7FFFFB7
:104E0000FFFFFFFFFFFFFFFFFFFFFFFFFFFFFFFFB2
:104E1000FFFFFFFFFFFFFFFFFFEF8BBA04F845F82E
:104E200062E044F000F88EDBFFDFF8A5C410E41068
:104E3000E4100411E41025195DEFFFFFFFFFFFFFF1
:104E4000FFFFFFFFBEF78729830839B6FFF7DFF7BB
:104E5000FFFFFFFFFFFFFFFFFFFFFFFFFFFFFFFF62
:104E6000FFFFFFFFFFFFFFFFBEE74ABA03F845F869
:104E700064F844F800F86EE3FFD7F48C830804115B
:104E8000E410E410E41005195DEFFFFFFFFFFFFFE2
:104E9000FFFFFFFFFFFFEF7300007284FFEFBEEF25
:104EA000DFFFFFFFFFFFFFFFFFFFFFFFFFFFFFFF32
:104EB000FFFFFFFFFFFFFFFFDFE78BBA03F845F8B7
:104EC00045F823F800F8D3D4FFD74E5B2100293AE8
:104ED00055A58308C41025195DEFFFFFFFFFFFFFF5
:104EE000FFFFFFFFFFFFFBDEA308E8319EDF9EE729
:104EF000BFEFFFFFFFFFFFFFFFFFFFFFFFFFFFFF12
:104F0000FFFFFFFFFFFFFFFFFFF751BC02E003F8C9
:104F100003F043E0ECC27ECFFCBE46212100D394D7
:104F2000FFFF5184000087295DEFFFFFFFFFFFFFB8
:104F3000FFFFFFFFFFFFFFFF51840000F48CFFEF36
:104F40009EE7BFEFDFFFFFFFFFFFFFFFFFFFFFFF5A
:104F5000FFFFFFFFFFFFFFFFFFFF3DDF55BD52BC1F
:104F600072BCB7B55DC7FFDFF06B0000093ABFF751
:104F7000FFFFFFFF149D55A55DEFFFFFFFFFFFFF44
:104F8000FFFFFFFFFFFFFFFFFFFFAC4AA408BBBE10
:104F9000DFE77EE7BEEFDFF7DFFFFFFFFFFFFFFF8B
:104FA000FFFFFFFFFFFFFFFFDFFFDFF7FFEFDFDFA9
:104FB000BFD79ED7DFDFD8A583082611DBD6FFFF3A
:104FC000FFFFFFFFFFFFFFFF5DEFFFFFFFFFFFFFA3
:104FD000FFFFFFFFFFFFFFFF79EE8BDC2131A921EF
:104FE0003DCFBFDF7EDF9EE7BEEFBFEFDFF7DFF72E
:104FF000DFF7DFF7DFF7BFEFBEEF9EE77EDF5ED7BD
:105000005ED7DFDF9AB626194208EDA3BFFFFFFF88
:10501000FFFFFFFFFFFFFFFF5DEFFFFFFFFFFFFF52
:10502000FFFFFFFFFFFF74DDC0DB00FE42EE024228
:1050300089217BB6DFDF7ED77EDF7EDF9EE79EE7BE
:105040009EE79EE79EE77EDF7EDF5DD75DD79EDF32
:10505000FFE7F8A50711E31802C560FDE6D3DBEE14
:10506000FFFFFFFFFFFFFFFF5DEFFFFFFFFFFFFF02
:10507000FFFFFFFF9EF784BAC1FC42FE82FEA2FE44
:105080008183452174745EC7DFDF7ED75ED75DD72D
:105090005ED75ED75DD75DD75ED79EDFFFE73DC7A2
:1050A000F1638408425226E629FF86FEE0F36AC3D4
:1050B000FFFFFFFFFFFFFFFF5DEFFFFFFFFFFFFFB2
:1050C000FFFFFFFF18DEC1D2A2FD22FE42FE42FE1C
:1050D00062FEE2D4416A494253743BA63EC7BFD741
:1050E000BFD7BFD7BFDFBFD73EC71AA6F263A72976
:1050F000824122B462FE83FEAAFE0FFF67FD63BAFF
:105100003CEFFFFFFFFFFFFF5DEFFFFFFFFFFFFF34
:10511000FFFFFFFF9AE680D221FDC2FDE2F5C2F556
:1051200082F582FD62FD61DC219B846AE96A2C6361
:10513000AF6311746E632C63895A0452817AC2CBB7
:10514000E2FC62FD82FDC2FDC2FDE4FD24FD62CAF7
:105150001CE7FFFFFFFFFFFF5DEFFFFFFFFFFFFF0C
:10516000FFFFFFFFFFFFB1CC81D2C0F3C1FC02FD06
:1051700002FDE2FCC2FCC2FC81FC80FBC0C9A48130
:1051800035AD59CE719C218100DAA1FB82FCA2FCD5
:1051900082FCA2FC02FD22FDE2FC00FC60DA90CC65
:1051A000FFFFFFFFFFFFFFFF5DEFFFFFFFFFFFFFC1
:1051B000FFFFFFFFFFFFFFFF59DE0DC406CBE4D268
:1051C00003DB03DBE3DAC3D2A4C209B3D2BC9EF78C
:1051D000FFFFFFFFFFFFFBE60EB4A6BA83D2E3E2B8
:1051E00002EB22EB22E303DBE4D26AC3B6D5FFFF76
:1051F000FFFFFFFFFFFFFFFF000023FC10401080B8
:1052000001440668F0B01128166810A41124162075
:1052100010A0284047FE00000000FFC000400044EE
:10522000004800500060005000480044002000206A
:105230000012000A0006000208101D10F0901090E5
:105240001010FD10109038903410501E53F0901034
:10525000101010101010101010201020102013FE2D
:10526000FC201020102015FC18843088D0481050E5
:105270001020105051882606000000000000000099
:10528000002F000000000700070000147F147F14A7
:1052900000242A7F2A12006264081323003649552D
:1052A000225000000503000000001C224100000005
:1052B00041221C000014083E08140008083E08089B
:1052C000000000A0600000080808080800006060F6
:1052D0000000002010080402003E5149453E000035
:1052E000427F4000004261514946002141454B3117
:1052F000001814127F10002745454539003C4A49E3
:105300004930000171090503003649494936000654
:105310004949291E000036360000000056360000BC
:105320000008142241000014141414140000412237
:10533000140800020151090600324959513E007C0F
:105340001211127C007F49494936003E41414122F9
:10535000007F4141221C007F49494941007F0909E2
:105360000901003E4149497A007F0808087F000092
:10537000417F4100002040413F01007F081422414D
:10538000007F40404040007F020C027F007F040805
:10539000107F003E4141413E007F09090906003E61
:1053A0004151215E007F091929460046494949318A
:1053B0000001017F0101003F4040403F001F2040AD
:1053C000201F003F4038403F00631408146300076B
:1053D0000870080700615149454300007F414100C2
:1053E00000552A552A55000041417F000004020162
:1053F0000204004040404040000001020400002040
:1054000054545478007F484444380038444444207D
:1054100000384444487F00385454541800087E092A
:1054200001020018A4A4A47C007F080404780000F2
:10543000447D4000004080847D00007F10284400AF
:105440000000417F4000007C04180478007C0804C0
:10545000047800384444443800FC242424180018FC
:10546000242418FC007C08040408004854545420E8
:1054700000043F444020003C4040207C001C204071
:10548000201C003C4030403C004428102844001CB4
:10549000A0A0A07C004464544C44141414141414AC
:1054A00000000000000000000000000000000000FC
:1054B000000000F800000000000000333000000091
:1054C00000100C06100C0600000000000000000098
:1054D00040C07840C0784000043F04043F0404000A
:1054E000007088FC08300000001820FF211E00001A
:1054F000F008F000E018000000211C031E211E002F
:1055000000F00888700000001E21232419272110B4
:1055100010160E0000000000000000000000000057
:10552000000000E0180402000000000718204000FE
:1055300000020418E00000000040201807000000EE
:10554000404080F0804040000202010F0102020052
:10555000000000F0000000000101011F0101010036
:10556000000000000000000080B07000000000009B
:105570000000000000000000000101010101010124
:1055800000000000000000000030300000000000BB
:105590000000000080601804006018060100000090
:1055A00000E010080810E000000F102020100F008D
:1055B000001010F8000000000020203F2020000014
:1055C000007008080888700000302824222130006C
:1055D00000300888884830000018202020110E0074
:1055E0000000C02010F8000000070424243F24001D
:1055F00000F80888880808000019212020110E00F2
:1056000000E0108888180000000F112020110E0003
:1056100000380808C83808000000003F00000000FB
:105620000070880808887000001C222121221C00BC
:1056300000E010080810E0000000312222110F00E5
:10564000000000C0C000000000000030300000007A
:1056500000000080000000000000806000000000EA
:105660000000804020100800000102040810200003
:10567000404040404040400004040404040404004E
:1056800000081020408000000020100804020100E3
:10569000007048080808F0000000003036010000E3
:1056A000C030C828E810E0000718272423140B0096
:1056B0000000C038E0000000203C23020227382010
:1056C00008F8888888700000203F202020110E00F4
:1056D000C0300808080838000718202020100800EB
:1056E00008F808080810E000203F202020100F00D4
:1056F00008F88888E8081000203F202023201800A0
:1057000008F88888E8081000203F20000300000007
:10571000C03008080838000007182020221E0200A8
:1057200008F808000008F808203F210101213F2067
:10573000000808F8080800000020203F2020000092
:1057400000000808F8080800C08080807F00000082
:1057500008F888C028180800203F200126382000BB
:1057600008F8080000000000203F20202020300022
:1057700008F8F800F8F80800203F003F003F20003C
:1057800008F830C00008F808203F200007183F0044
:10579000E01008080810E0000F10202020100F0073
:1057A00008F808080808F000203F21010101000066
:1057B000E01008080810E0000F18242438504F00AB
:1057C00008F8888888887000203F2000030C30206B
:1057D00000708808080838000038202121221C00A9
:1057E000180808F8080818000000203F20000000F2
:1057F00008F808000008F808001F202020201F00DB
:105800000878880000C83808000007380E0100003A
:10581000F80800F80008F800033C0700073C030004
:10582000081868808068180820302C03032C30206A
:105830000838C800C83808000000203F20000000D9
:1058400010080808C8380800203826212020180031
:10585000000000FE020202000000007F4040400005
:10586000000C30C000000000000000010638C0003D
:1058700000020202FE000000004040407F000000E5
:10588000000004020202040000000000000000000A
:105890000000000000000000808080808080808008
:1058A00000020204000000000000000000000000F0
:1058B00000008080808000000019242222223F20E6
:1058C00008F8008080000000003F112020110E0029
:1058D0000000008080800000000E112020201100B8
:1058E000000000808088F800000E112020103F206A
:1058F0000000808080800000001F222222221300EE
:10590000008080F0888888180020203F2020000038
:105910000000808080808000006B949494936000ED
:1059200008F8008080800000203F210000203F20F8
:1059300000809898000000000020203F20200000F8
:10594000000000809898000000C08080807F0000E8
:1059500008F8000080808000203F24022D302000C5
:10596000000808F8000000000020203F2020000070
:105970008080808080808000203F20003F20003F8A
:105980008080008080800000203F210000203F2098
:105990000000808080800000001F202020201F0049
:1059A000808000808000000080FFA12020110E0078
:1059B0000000008080808000000E112020A0FF8069
:1059C000808080008080800020203F212000010016
:1059D000000080808080800000332424242419006B
:1059E000008080E0808000000000001F2020000078
:1059F0008080000000808000001F202020103F20B9
:105A0000808080000080808000010E300806010048
:105A100080800080008080800F300C030C300F00ED
:105A200000808000808080000020312E0E31200018
:105A3000808080000080808080818E701806010048
:105A400000808080808080000021302C2221300066
:105A500000000000807C020200000000003F404087
:105A600000000000FF00000000000000FF00000038
:105A70000002027C800000000040403F0000000067
:105A80000006010102020404000000000000000002
:105A9000404042CC002022924A36E242A21200004C
:105AA0000040201F2049494452615F404146400068
:105AB000020202020202020202FE40A010080000DE
:105AC000000000000000000000030C102142F00064
:105AD0002424A4FEA3220022CC0000FF000000002A
